:020000040800F2
:10000000600700209D090008F9020008FB020008B3
:10001000FF020008030300080703000800000000B7
:100020000000000000000000000000000B030008BA
:100030000D030008000000000F0300081103000872
:10004000B7090008B7090008B7090008B709000890
:10005000B7090008B7090008B7090008B709000880
:10006000B7090008B7090008B7090008B709000870
:10007000B7090008B7090008B7090008B709000860
:10008000B7090008B7090008B7090008B709000850
:10009000B7090008B7090008B7090008B709000840
:1000A000B7090008B7090008B7090008B709000830
:1000B000B7090008B7090008B7090008B709000820
:1000C000B7090008B7090008B7090008B709000810
:1000D000B709000811090008B7090008B7090008A6
:1000E000B7090008B7090008B7090008B7090008F0
:1000F000B7090008B7090008B7090008B7090008E0
:10010000B7090008B709000879060008B709000810
:10011000B7090008B7090008B7090008B7090008BF
:10012000B7090008B7090008B7090008B7090008AF
:10013000B7090008B7090008B7090008B70900089F
:10014000B7090008B7090008B7090008B70900088F
:10015000B7090008B7090008B7090008B70900087F
:10016000B7090008B7090008B7090008B70900086F
:10017000B7090008B7090008B7090008B70900085F
:10018000B7090008B709000800F002F800F046F8C7
:100190000AA090E8000C82448344AAF10107DA45E2
:1001A00001D100F03BF8AFF2090EBAE80F0013F0EE
:1001B000010F18BFFB1A43F001031847482600003F
:1001C00068260000103A24BF78C878C1FAD85207D0
:1001D00024BF30C830C144BF04680C6070470000C1
:1001E0000023002400250026103A28BF78C1FBD840
:1001F000520728BF30C148BF0B60704703681B0A15
:1002000028BF41F08001E42902F05A8100207047A4
:100210001FB502F0F1FA1FBD10B510BD02F0BAFA19
:100220001146FFF7F5FF00F009F802F0D8FA03B421
:10023000FFF7F2FF03BC00F00BFB000000240127D6
:1002400000BF4FF4A06000F0C9FBA82000F07EFAC8
:100250004FF4E13000F00AFB532140F2F31000F0BC
:1002600061F95321601E00F0ADF935E00A2000F07D
:10027000CFFA17B1601D84B201E0601F84B2B4F5FB
:10028000967F00DD002704B901272146134801F0BD
:1002900024FA1348007800F08000E8B11048007894
:1002A00000F03F00C61705464FF0FF3300202946F7
:1002B000A1FB03C806FB038205FB0026654609482F
:1002C00000682D1846F100062A46334606A002F0C3
:1002D000EBF8002002490870C8E700000004004065
:1002E0001400002018000020484947483A256C6C4B
:1002F000642075730D0A0000704700BFFEE700BF61
:10030000FEE700BFFEE700BFFEE77047704770479B
:10031000704700000CB500200190009076480068FE
:1003200040F480307449086000BF7348006800F4EE
:10033000003000900198401C0190009818B9019875
:10034000B0F5A04FF1D16C48006800F4003010B156
:100350000120009001E0002000900098012846D183
:1003600065484030006840F0805063494031086083
:100370006248006840F44040604908605E480830C8
:1003800000685D49083108600846006840F4004094
:1003900008600846006840F4A05008605848091FEB
:1003A0000860081F006840F08070091F086000BFE7
:1003B0005148006800F000700028F9D040F2057044
:1003C000504908604C480830006820F003004A4952
:1003D000083108600846006840F00200086000BF6D
:1003E00045480830006800F00C000828F8D10CBD22
:1003F00010B54548006840F47000434908603E4825
:10040000006840F001003C49086000203A4908318A
:100410000860394800683D490840374908603C4851
:10042000091D0860081F006820F48020091F08606B
:10043000002031490C310860FFF76CFF4FF000607D
:1004400031498039086010BD70B5002000220223B8
:1004500000240221284D08352D6805F00C0020B13C
:10046000042806D0082834D107E02A4D2A4E3560EA
:1004700033E02A4D284E35602FE01F4D2D1D2D688D
:10048000C5F380541C4D2D1D2D6805F03F0154B15E
:10049000224DB5FBF1F5184E361D3668C6F38816A9
:1004A00005FB06F209E01B4DB5FBF1F5124E361DBA
:1004B0003668C6F3881605FB06F20F4D2D1D2D6814
:1004C000C5F301456D1C6B00B2FBF3F5124E3560B0
:1004D00003E0104D104E356000BF00BF064D0835DB
:1004E0002D68C5F303150E4E705D0B4D2D68C5408C
:1004F000094E356070BD00000038024000700040B9
:1005000008544007003C024088ED00E0FFFFF6FE83
:10051000103000240024F4000000002000127A00B3
:100520000400002030B58BB005460C4601210220A6
:1005300001F0ADFE0121084601F060FE0222062115
:100540001E4800F0CCFB4020099002208DF82800C6
:1005500003208DF8290000208DF82A0001208DF855
:100560002B0009A9154800F02FFB0795A0B2ADF8A4
:1005700018000020ADF82000ADF81A0006A91048B8
:1005800000F0BDFE6020ADF804000120ADF80600CB
:100590000220ADF8100001A9094800F045FF08212C
:1005A000074801F0CEF80121054800F013FF0121B2
:1005B000034800F02DFF0BB030BD000000000240EA
:1005C0000004004030B589B005460C4601210820E2
:1005D00001F05DFE0121084601F010FE01200790A8
:1005E00002208DF8200003208DF8210000208DF8D6
:1005F000220002208DF8230007A9504800F0E4FAF9
:10060000022200214D4800F06AFB0595ADF810402C
:100610000020ADF81800ADF8120004A9484800F019
:100620006EFE0020ADF80400ADF806000120ADF824
:1006300008000020ADF80A00ADF80C0001A9404800
:1006400001F034FA012203213D4801F0F9FA0121B9
:100650003B4800F0DDFE32208DF8000002208DF8CE
:10066000010000208DF8020001208DF8030068468B
:1006700000F0B9F909B030BD10B53248007800F08B
:100680008000002854D101212D4801F0F0FAD0B1AA
:100690002C48007800F04000A8B12A48007800F00B
:1006A0003F003F280AD12748007840F080002549C4
:1006B00008704FF0FF302449086004E021480078BA
:1006C000401C2049087002211D4801F0D0FA78B37F
:1006D0001C48007800F0400078B11A48007840F0DB
:1006E000800018490870164801F05EFA1649086043
:1006F0000021134801F0A7F81AE000201149087002
:10070000114908600F48007840F040000D4908701A
:1007100000210B4800F07CFE0021094800F038FE63
:100720000221074801F08FF80121054800F070FE12
:100730000321034801F0ACFA10BD000000000240A4
:10074000000C0040140000201800002010B50446E2
:100750006FF0040000F094F9E11704EB5171C1F35C
:10076000C701394A11701046007800EB4001C1EB17
:10077000C0104FF6FF7101EAC0003449088010BD77
:100780000146314A12784A434FF0E0235A61002271
:100790009A611A46126942F001021A6100BF4FF0D5
:1007A000E022106900F001021AB100F48032002A40
:1007B000F5D04FF0E022126922F001024FF0E02361
:1007C0001A6100229A6170470146204A12884A4302
:1007D0004FF0E0235A6100229A611A46126942F0F2
:1007E00001021A6100BF4FF0E022106900F001021F
:1007F0001AB100F48032002AF5D04FF0E0221269DD
:1008000022F001024FF0E0231A6100229A61704742
:1008100070B504464FF4077094FBF0F0C6B24FF485
:10082000077094FBF0F100FB114085B205E04FF436
:100830000770FFF7C9FF701EC6B2002EF7D115B1C1
:100840002846FFF7C1FF70BD1C0000201E000020DD
:10085000014600BF704700BF4C4A128802F04002B8
:10086000002AF9D0C2B2494B9A80704710B588B0BF
:1008700004460121084601F0C1FC0121102001F0CD
:1008800017FD07220921424800F029FA07220A2110
:100890003F4800F024FA4FF4C060069002208DF823
:1008A0001C008DF81D0000208DF81E0001208DF821
:1008B0001F0006A9364800F087F902940020ADF821
:1008C0000C00ADF80E00ADF81000ADF814000C20CF
:1008D000ADF8120002A92D4800F0A1FA01212B4821
:1008E00000F025FB012240F22551284800F0D5FBFD
:1008F00025208DF8040003208DF805008DF80600F2
:1009000001208DF8070001A800F06DF808B010BDB7
:1009100010B540F225511D4800F0FAFB10B31B48FA
:1009200000F034FBC4B21B48008800F40040C8B992
:100930001848008800F4804060B10A2C03D00020E1
:100940001449088020E01348008840F40040114911
:10095000088019E00D2C06D10E48008840F4804034
:100960000C49088010E00B480088C0F30D000A49CC
:100970000C5408480088401C064908800846008836
:10098000C72801DD0020088010BD000000100140D4
:100990000000024024000020380000200948804761
:1009A00009480047FEE7FEE7FEE7FEE7FEE7FEE751
:1009B000FEE7FEE7FEE7FEE704480549054A064B69
:1009C00070470000F1030008890100086001002061
:1009D00060070020600300206003002032490143CB
:1009E000324A1160704770B5002100230F22C4788D
:1009F0001CB32E4C246804F4E064C4F5E064C4F332
:100A00000721C1F10404E3B20A4144789C40E1B2F9
:100A10008478144021430C07210E254C057861553C
:100A2000047804F01F050124AC4005786D11AD0079
:100A300005F1E025C5F8004109E0047804F01F0540
:100A40000124AC401B4D0678761145F8264070BD58
:100A5000194A0A400243154B1B1F1A60704739B1EF
:100A6000124A121D12680243104B1B1D1A6006E049
:100A70000E4A121D126882430C4B1B1D1A607047F0
:100A8000042808D14FF0E021096941F004014FF03A
:100A9000E022116107E04FF0E021096921F0040133
:100AA0004FF0E022116170470000FA050CED00E004
:100AB00000E400E080E100E080FFFF1F10B5044685
:100AC0009848844208D10121084601F002FC002127
:100AD000012001F0FEFB76E09348844208D1012119
:100AE000022001F0F6FB0021022001F0F2FB6AE097
:100AF0008E48844208D10121042001F0EAFB002144
:100B0000042001F0E6FB5EE08948844208D101211F
:100B1000082001F0DEFB0021082001F0DAFB52E0A2
:100B20008448844208D10121102001F0D2FB002129
:100B3000102001F0CEFB46E07F48844208D101211D
:100B4000202001F0C6FB0021202001F0C2FB3AE08A
:100B50007A48844208D10121402001F0BAFB0021EB
:100B6000402001F0B6FB2EE07548844208D10121F7
:100B7000802001F0AEFB0021802001F0AAFB22E0E2
:100B80007048844208D10121801501F0A2FB0021A8
:100B9000A01501F09EFB16E06B48844208D10121AC
:100BA000401501F096FB0021601501F092FB0AE070
:100BB0006648844207D10121001501F08AFB00211B
:100BC000201501F086FB10BDF0B50A460021002378
:100BD000002400BF3DE0012505FA01F3156805EA90
:100BE00003049C4234D105684F000326BE40B54340
:100BF000056015794E00B5400668354305601579E6
:100C0000012D02D01579022D16D185684F000326DB
:100C1000BE40B543856055794E00B5408668354382
:100C20008560456801268E40B543456045689679E4
:100C30008E40B6B235434560C5684F000326BE40BE
:100C4000B543C560D5794E00B540C6683543C5602B
:100C5000491C1029BFD3F0BD4FF6FF710160002180
:100C6000017141718171C171704708B54FF48032D3
:100C70000092009A0A430092009AC261C161009AF0
:100C8000C261C2690092C269009208BD024600209A
:100C900013690B400BB1012000E0002070470146B2
:100CA000086980B270470246002053690B400BB1BF
:100CB000012000E0002070470146486980B270477B
:100CC00001837047418370470AB1018300E041838B
:100CD00070474161704742694A4042617047F0B5D0
:100CE000002300244D07ED0E02FA05F3CE1000F1AB
:100CF000200555F826504E07F70E0F26BE40B54387
:100D0000CF1000F1200646F82750CE1000F1200544
:100D100055F8265045EA0304CE1000F1200545F8A9
:100D20002640F0BD000002400004024000080240DE
:100D3000000C024000100240001402400018024063
:100D4000001C024000200240002402400028024013
:100D500010B50446FA48844208D10121102001F060
:100D6000FCFA0021102001F0F8FA57E0F54884421F
:100D700009D10121480401F0DFFA00214FF40030CD
:100D800001F0DAFA4AE0F048844209D101218804EE
:100D900001F0D2FA00214FF4802001F0CDFA3DE0BD
:100DA000EA48844209D10121C80401F0C5FA0021B2
:100DB0004FF4002001F0C0FA30E0E548844209D148
:100DC0000121080501F0B8FA00214FF4801001F06C
:100DD000B3FA23E0DF48844208D10121202001F04A
:100DE000BCFA0021202001F0B8FA17E0DA4884426A
:100DF00009D10121880701F09FFA00214FF08040BE
:100E000001F09AFA0AE0D548844207D10121400551
:100E100001F092FA0021600501F08EFA10BD2DE973
:100E2000FF4705460E460024A14600BFA046B089F4
:100E300000B100BF2C8A24F44054F08804432C8273
:100E4000AC8941F20C608443B088318908437189D0
:100E500008430443AC81AC8A24F44074B089044351
:100E6000AC82684601F0F9F8B548854202D0B9482D
:100E7000854202D1DDF80C9001E0DDF80890A889E8
:100E800000F4004040B109EBC90000EB09103168E3
:100E90004900B0FBF1F707E009EBC90000EB0910CE
:100EA00031688900B0FBF1F76420B7FBF0F0040172
:100EB0002009642101FB1078A88900F4004040B1AA
:100EC000322000EBC800B0FBF1F000F00700044353
:100ED00008E0322000EB08106421B0FBF1F000F0D4
:100EE0000F0004432C81BDE8FF874FF416510160C9
:100EF00000218180C18001810C21418100218181FB
:100F0000704710B502460020108A20F470600B88EC
:100F10004C8823438C882343CC8823431843108276
:100F200010BD0021018041808180C180704721B1C6
:100F3000828942F40052828104E082894DF6FF7377
:100F40001A4082817047028B02F47F420283028B37
:100F50000A430283704721B1828942F400428281B0
:100F600003E08289C2F30E028281704721B1828A36
:100F700042F40062828204E0828A4FF2FF731A40D8
:100F800082827047C1F308028280704701468888D8
:100F9000C0F308007047028A4FF6F0731A400282CD
:100FA000028A0A430282704721B1828942F002021A
:100FB000828104E082894FF6FD731A408281704776
:100FC00082894FF2FF731A40828182890A438281AB
:100FD0007047028A4FF6DF731A400282028A0A4380
:100FE0000282704721B1028A42F48042028204E008
:100FF000028A4BF6FF731A4002827047818941F0E2
:1010000001018181704721B1828A42F00802828207
:1010100004E0828A4FF6F7731A4082827047028B8F
:10102000D2B20283028B42EA01220283704721B1CD
:10103000828A42F02002828204E0828A4FF6DF73C5
:101040001A408282704721B1828A42F01002828265
:1010500004E0828A4FF6EF731A4082827047828AD8
:101060004FF6FB731A408282828A0A43828270475B
:1010700021B1828A42F00202828204E0828A4FF623
:10108000FD731A40828270471AB1838A0B438382B0
:1010900002E0838A8B4383827047F0B503460024C5
:1010A00000260025002040F66A17B94200D100BF93
:1010B0001846C1F3421401F01F06012707FA06F58E
:1010C000012C01D10C3004E0022C01D1103000E0E1
:1010D00014301AB107682F43076002E00768AF4376
:1010E0000760F0BD02460020B1F5007F00D100BFCF
:1010F00013880B400BB1012000E00020704701F481
:101100000072B2F5007F00D100BFCA430280704771
:1011100070B50246002400230025002040F66A1620
:10112000B14200D100BFC1F3421501F01F030126F7
:1011300006FA03F3012D13D19689334017E000001E
:10114000001001400044004000480040004C0040B6
:10115000005000400014014000780040007C004036
:10116000022D02D1168A334001E0968A33400C12D8
:10117000012606FA04F41688344013B10CB101209C
:1011800000E0002070BD10B50022002340F66A1474
:10119000A14200D100BF0A1201249440A3B2DC4353
:1011A000048010BD10B50446FE48844208D10121D8
:1011B000084601F0D2F80021012001F0CEF89DE0B0
:1011C000B4F1804F08D10121084601F0B5F80021A3
:1011D000012001F0B1F891E0F348844208D10121E7
:1011E000022001F0A9F80021022001F0A5F885E015
:1011F000EE48844208D10121042001F09DF800212D
:10120000042001F099F879E0E948844208D10121ED
:10121000082001F091F80021082001F08DF86DE020
:10122000E448844208D10121102001F085F8002112
:10123000102001F081F861E0DF48844208D10121EB
:10124000202001F079F80021202001F075F855E008
:10125000DA48844208D10121022001F07EF8002101
:10126000022001F07AF849E0D548844209D10121F1
:10127000080401F072F800214FF4803001F06DF89D
:101280003CE0D048844209D10121480401F065F8CE
:1012900000214FF4003001F060F82FE0CA4884428A
:1012A00009D10121880401F058F800214FF4802071
:1012B00001F053F822E0C548844208D101214020C2
:1012C00001F03AF80021402001F036F816E0C0485D
:1012D000844208D10121802001F02EF800218020D5
:1012E00001F02AF80AE0BB48844207D101218015A9
:1012F00001F022F80021A01501F01EF810BD002217
:101300000288A84B98420ED0AC4B98420BD0B0F15B
:10131000804F08D0A44B984205D0A44B984202D0ED
:10132000A34B984204D14FF68F731A404B881A434F
:10133000A04B984207D0A04B984204D04FF6FF43F1
:101340001A400B891A4302804B68C3620B880385DD
:10135000944B984202D0994B984201D18B7A0386E4
:101360000123838270474FF0FF31416000210180EB
:1013700001814180817270470185828270470A46EF
:10138000002101884FF68F73194011430180704787
:1013900041627047C16270470146486A7047014622
:1013A000088D704721B1028842F00202028004E0F9
:1013B00002884FF6FD731A400280704721B10288FF
:1013C00042F00402028004E002884FF6FB731A40E8
:1013D0000280704721B1028842F08002028004E05E
:1013E00002884FF67F731A400280704702884FF6DA
:1013F000F7731A40028002880A430280704702880D
:101400004FF6FF431A40028002880A430280704769
:1014100021B1028842F00102028004E002884FF606
:10142000FE731A400280704770B50024002200232A
:10143000058C4FF6FE7635400584028C8388048B3C
:101440004FF68F752C40B51E2C400D882C43751E11
:101450002A408D892A434D882A43524DA84202D002
:10146000564DA84213D14FF6F7752A40CD892A432D
:101470004FF6FB752A408D882A434FF6FF652B40B7
:101480004FF6FF552B400D8A2B434D8A2B4383800B
:1014900004838D684563028470BD70B5002400220A
:1014A0000023058C4FF6EF7635400584028C838847
:1014B000048B48F6FF752C404FF6FF452C400D88F5
:1014C0004FF6FF7606EA05252C434FF6DF752A40D6
:1014D0008D8906EA05152A434D8806EA05152A4333
:1014E000304DA84202D0354DA8421DD14FF67F7530
:1014F0002A40CD894FF6FF7606EA05152A434FF6B6
:10150000BF752A408D8806EA05152A434FF6FF3538
:101510002B404FF2FF752B400D8A06EA85052B43C1
:101520004D8A06EA85052B43838004838D68856395
:10153000028470BD70B5002400220023058C4FF694
:10154000FF6635400584028C8388848B4FF68F7547
:101550002C404FF6FC752C400D882C434FF6FF5560
:101560002A408D894FF6FF7606EA05252A434D88E5
:1015700006EA05252A430B4DA84202D00F4DA8428A
:1015800038D14FF2FF752A40CD894FF6FF7606EA33
:1015900005252A434FF6FF352A408D8806EA0525A2
:1015A0002A4319E000000140000400400008004008
:1015B000000C0040001000400014004000040140F6
:1015C0000040014000440140004801400018004034
:1015D000001C0040002000404EF6FF752B404DF6E9
:1015E000FF752B400D8A06EA05152B434D8A06EA46
:1015F00005152B43838084838D68C563028470BD89
:1016000070B5002200230024058C4EF6FF7635408D
:101610000584038C8488828B48F6FF752A404FF638
:10162000FF452A400D884FF6FF7606EA05252A4336
:101630004DF6FF752B408D8906EA05352B434D8805
:1016400006EA05352B43FE4DA84202D0FD4DA842C7
:1016500008D14BF6FF752C400D8A4FF6FF7606EA4F
:1016600085152C43848082838D680564038470BD56
:10167000002101804180818081608181C18101825E
:101680004182704770B50346002000241846183088
:1016900001258D40ACB21D8CA5431D8409B10829DC
:1016A0000AD100EB610005684FF68F763540056082
:1016B0000568154305600FE00D1FC5F34E0528446E
:1016C000056848F6FF763540056005684FF6FF76F9
:1016D00006EA02263543056070BD416370478163A9
:1016E0007047C1637047016470470A460021018B4F
:1016F0004FF68F7319401143018370470A4600214A
:10170000018B48F6FF7319404FF6FF7303EA02237B
:101710001943018370470A460021818B4FF68F736E
:1017200019401143818370470A460021818B48F696
:10173000FF7319404FF6FF7303EA022319438183B5
:1017400070470A460021018B4FF6F7731940114389
:10175000018370470A460021018B4FF2FF73194045
:101760004FF6FF7303EA02231943018370470A46C9
:101770000021818B4FF6F773194011438183704725
:101780000A460021818B4FF2FF7319404FF6FF7319
:1017900003EA02231943818370470A460021018B23
:1017A0004FF6FB7319401143018370470A4600212D
:1017B000018B4FF6FF3319404FF6FF7303EA022304
:1017C0001943018370470A460021818B4FF6FB7352
:1017D00019401143818370470A460021818B4FF6DF
:1017E000FF3319404FF6FF7303EA02231943818345
:1017F00070470A460021018B4FF67F731940114351
:10180000018370470A460021018BC1F30E014FF698
:10181000FF7303EA02231943018370470A4600213C
:10182000818B4FF67F7319401143818370470A46BD
:101830000021818BC1F30E014FF6FF7303EA0223EF
:101840001943818370470A460021018C4FF6FD73CE
:1018500019401143018470470A460021018C4FF65C
:10186000F77319401143018470470A460021018C27
:101870004FF6DF7319404FF6FF7303EA0213194363
:10188000018470470A460021018C4FF67F7319408E
:101890004FF6FF7303EA02131943018470470A46A7
:1018A0000021018C4FF6FF5319404FF6FF7303EAF6
:1018B00002231943018470470A460021018C4FF22C
:1018C000FF7319404FF6FF7303EA022319430184A3
:1018D00070470A460021018C4DF6FF7319404FF600
:1018E000FF7303EA023319430184704730B50023C4
:1018F00001248C40A3B2048C9C430484048C02FA1F
:1019000001F5ADB22C43048430BD30B5002304246E
:101910008C40A3B2048C9C430484048C02FA01F52D
:10192000ADB22C43048430BD828B4FF2FF331A409A
:101930008283828B4FF6FF7303EA01231A4382836B
:101940007047F0B50C461546002100220026078C92
:101950004EF6FF7C07EA0C070784818B028C4FF65A
:10196000FF7707EA043640F6FF4739404FF6FF7726
:1019700007EA052739434FF6FF7707EA033739436C
:1019800045F6FF773A4046F480573A438183028414
:10199000F0BD828B4FF6F3731A408283828B0A4329
:1019A00082837047F0B50C461546002100220026C0
:1019B000078C4FF6FF6C07EA0C070784818B028CBB
:1019C0004FF6FF7707EA04264FF60C7739404FF6BB
:1019D000FF7707EA03172F4339434FF2FF573A4087
:1019E00046F480773A4381830284F0BD028B4FF244
:1019F000FF331A400283028B4FF6FF7303EA012381
:101A00001A4302837047F0B50C46154600210022A8
:101A10000026078C4FF6EF7C07EA0C070784018B42
:101A2000028C4FF6FF7707EA041640F6FF4739406D
:101A30004FF6FF7707EA033739434FF6FF7703E0A6
:101A4000000001400004014007EA052739434FF632
:101A50005F773A4046F010073A4301830284F0BDB5
:101A6000028B4FF6F3731A400283028B0A43028300
:101A70007047F0B50C46154600210022068C4FF643
:101A8000FE773E400684018B028C4FF60C76314087
:101A90007E1C06EA03162E4331434FF6F57632409C
:101AA00044F00106324301830284F0BD70B505465F
:101AB0000C46208850B92389A28861882846FFF700
:101AC000D8FFE1882846FFF7CBFF25E020880428CF
:101AD0000AD12389A28861882846FFF794FFE1880C
:101AE0002846FFF783FF17E0208808280AD12389BA
:101AF000A28861882846FFF755FFE1882846FFF74E
:101B000048FF09E02389A28861882846FFF719FF6A
:101B1000E1882846FFF708FF70BD00210180418061
:101B2000012181800021C180018170472DE9F041B0
:101B300005460C4600260127608808B9022600E009
:101B40000026A088012801D1022700E00127208873
:101B5000A0B92389A28861882846FFF78AFFE18817
:101B60002846FFF77DFF23893A4631462846FFF78E
:101B70004AFFE1882846FFF739FF13E02389A2884E
:101B800061882846FFF73FFFE1882846FFF72EFFD0
:101B900023893A4631462846FFF76BFFE1882846FD
:101BA000FFF75EFFBDE8F0810146486B70470146D4
:101BB000886B70470146C86B70470146086C7047D8
:101BC0000A884B881A438B881A43CB881A430B899F
:101BD0001A434B891A438B891A43A0F84420704753
:101BE0000021018041808180C1800181418181810A
:101BF000704731B1B0F8442042F40042A0F84420CC
:101C000005E0B0F84420C2F30E02A0F8442070476B
:101C100021B1828842F00402828004E082884FF67B
:101C2000FB731A408280704721B1828842F0010222
:101C3000828004E082884FF6FE731A4082807047EB
:101C40001AB183890B43838102E083898B438381AB
:101C500070478182704702460020138A0B400BB107
:101C6000012000E000207047CA430282704730B56F
:101C70000246002000230024158A05EA0103958905
:101C800005EA010413B10CB1012000E0002030BDD1
:101C9000CA430282704741EA0203A0F84830704705
:101CA0001AB183890B43838102E083898B4383814B
:101CB000704721B1828842F00802828004E0828865
:101CC0004FF6F7731A408280704701894FF6F87219
:101CD0001140018170470A46002101894FF68F7338
:101CE000194011430181704730B504460D4629461D
:101CF0002046FFF7F0FF208940F00700208130BD2B
:101D00002DE9F04104460D4616461F46602D06D1CA
:101D10003B46012231462046FFF775FE05E03B4673
:101D2000012231462046FFF7A4FE29462046FFF750
:101D3000D2FF208940F007002081BDE8F08130B556
:101D40000C4600210189C9B24FF6FF7505EA03254B
:101D5000154325432943018130BD2DE9F041054656
:101D60000E4617469846002443463A4631462846D2
:101D7000FFF7E5FF2C894FF6F870044044F00704A4
:101D80004FF68F70044044F070042C81BDE8F08160
:101D9000F0B504460D4616461F463B4632462946D8
:101DA0002046FFF7CCFF208940F480402081F0BD21
:101DB00082884FF68F731A40828082880A4382801D
:101DC000704702894FF6F8731A40028102890A436C
:101DD0000281704702894FF67F731A40028102899F
:101DE0000A4302817047F0B50C4615461E46002195
:101DF000002200230189028B038C4FF6F8773940CB
:101E000021434FF6FC473A4040F201173A434FF660
:101E1000DD773B404FF6FF7707EA06172F433B433A
:101E2000018102830384F0BD21B1828842F08002E7
:101E3000828004E082884FF67F731A408280704768
:101E4000A0F8501070470000F948006840F0010009
:101E5000F74908600020F64908310860F448006836
:101E6000F4490840F2490860F348091D0860F34846
:101E7000EF4984310860F0481038091D0860EC48CB
:101E8000006820F48020EA4908600020E8490C310D
:101E90000860E7498C31086070470021E44A921CD1
:101EA000117011460870704710B5014600220023DA
:101EB00000204A11012A02D1DD4C236808E0022AE1
:101EC00003D1DB4C7034236802E0D94C74342368AE
:101ED00001F01F02012494401C400CB1012000E0DD
:101EE000002010BD38B5002000900024002500BF60
:101EF0003120FFF7D9FF05460098401C009000985C
:101F0000B0F5A04F01D0002DF2D03120FFF7CCFF6B
:101F100008B1012400E00024204638BD014600201D
:101F2000C34A106820F0F80040EAC1001060704712
:101F3000C349086070470021BD4A703211701170AA
:101F4000012802D004280AD104E00121B84A7032E5
:101F5000117005E00521B64A7032117000E000BF33
:101F600000BF7047B7490860704770B5049C41EAEC
:101F700082150126C6EB530645EA0645054345EAA8
:101F80000465AB4E361D356070BDAD4908667047BF
:101F9000820142EA0172A64B84331A607047A84955
:101FA0008866704710B5830143EA016343EA027310
:101FB0009F4C8834236010BDA14908677047A04931
:101FC000C864704702460020994B0833186820F017
:101FD000EC6042EA01031843954B083318607047E0
:101FE00002460020924B0833186820F0784042EAFD
:101FF000010318438E4B08331860704701460020D8
:102000008B4A0832106820F00300084310607047C4
:1020100087480830006800F00C0070470146002037
:10202000834A0832106820F0F000084310607047BF
:10203000014600207E4A0832106820F4E050084330
:102040001060704701460020794A0832106820F479
:10205000604040EAC10010607047F0B500210022E6
:102060000024022500260223714F08373F6807F03D
:102070000C0121B1042905D0082937D105E0724FA0
:10208000076036E0714F076033E0694F3F1D3F68DE
:10209000C7F38056664F3F1D3F6807F03F036EB1A0
:1020A0006A4FB7FBF3F7DFF888C10CF1040CDCF8DA
:1020B00000C0CCF3881C07FB0CF40CE0624FB7FBAC
:1020C000F3F7DFF86CC10CF1040CDCF800C0CCF3C2
:1020D000881C07FB0CF4564F3F1D3F68C7F30147B0
:1020E0007F1C7D00B4FBF5F7076002E0564F0760E8
:1020F00000BF00BF4E4F08373F6807F0F0010909E5
:10210000534F7A5C0768D7404760494F08373F68AC
:1021100007F4E051890A4E4F7A5C4768D7408760E0
:10212000434F08373F6807F46041490B484F7A5CDA
:102130004768D740C760F0BD002100F44072B2F597
:10214000407F0AD13A4A0832116821F4F811414A15
:1021500002401143364A08321160354A7032126823
:10216000C0F30B031A43324B70331A607047354982
:102170004439086070473349403908607047364930
:102180000860704701460020294A8C32106820F010
:102190001F004A1E1043264A8C32106070470146C9
:1021A0000020234A8C32106820F4F8504A1E40EA7E
:1021B00002201F4A8C3210607047014600201C4AE2
:1021C0008C32106820F440100843106070470146BC
:1021D0000020174A8C32106820F440000843106039
:1021E000704701460020124A8C32106820F44030BB
:1021F00008431060704719490860704739B10C4AAC
:102200003032126802430A4B30331A6006E0084A43
:10221000303212688243064B30331A607047F9B18E
:10222000034A343212680243014B34331A601CE013
:1022300000380240FFFFF6EA103000240030002092
:1022400000004742800E47420024F40000127A004A
:1022500026000020FFFCFF0F5C014742E0114742CF
:102260008F4A126882438E4B1A60704739B18C4A8C
:10227000121D126802438A4B1B1D1A6006E0884A31
:10228000121D12688243864B1B1D1A60704739B1BC
:10229000834A0C3212680243814B0C331A6006E009
:1022A0007F4A0C32126882437D4B0C331A607047B0
:1022B00039B17B4A103212680243794B10331A60ED
:1022C00006E0774A103212688243754B10331A6069
:1022D000704739B1724A243A12680243704B243B6A
:1022E0001A6006E06E4A243A126882436C4B243B23
:1022F0001A60704739B16A4A203A12680243684B43
:10230000203B1A6006E0664A203A12688243644B1A
:10231000203B1A60704739B1614A1C3A1268024387
:102320005F4B1C3B1A6006E05D4A1C3A1268824310
:102330005B4B1C3B1A60704739B1594A143A12681A
:102340000243574B143B1A6006E0554A143A126890
:102350008243534B143B1A60704739B1504A103ACC
:10236000126802434E4B103B1A6006E04C4A103A8A
:10237000126882434A4B103B1A60704739B1484A91
:102380001C3212680243464B1C331A6006E0444A72
:102390001C3212688243424B1C331A60704739B1B9
:1023A0003F4A2032126802433D4B20331A6006E058
:1023B0003B4A203212688243394B20331A607047FF
:1023C00039B1374A243212680243354B24331A603C
:1023D00006E0334A243212688243314B24331A60B8
:1023E000704739B12E4A2C32126802432C4B2C33E1
:1023F0001A6006E02A4A2C3212688243284B2C339A
:102400001A60704739B1264A303212680243244BB1
:1024100030331A6006E0224A303212688243204B81
:1024200030331A607047012808D11D493C310968D2
:1024300041F008011A4A3C32116007E018493C316A
:10244000096821F00801164A3C321160704739B121
:10245000134A273A12780243114B273B1A7006E0C1
:102460000F4A273A127882430D4B273B1A70704768
:102470000B484030006840F08070094940310860E6
:10248000704701460020064A283A12680A400AB1FD
:10249000012000E00020704701492639087070478C
:1024A00034380240704700000FB4044910B503AA45
:1024B000029800F041F910BC5DF814FB20000020E8
:1024C0002DE9F0418046D21D22F007020025D2E915
:1024D0000002F52915A614D0011E72F1000106DADA
:1024E0000023D0EB030063EB020211A608E0D8F84A
:1024F00000108B0701D50FA602E0490701D50EA6F3
:1025000001251146002408F1240704E000F076F8C4
:1025100030323A55641C50EA0102F7D12B4632465C
:1025200021464046BDE8F04100F0ADB80000000093
:102530002D0000002B000000200000002DE9F041DC
:102540000F460546002028622846E968884770B390
:10255000252805D0D5E901219047286A401CF2E7DB
:10256000E9682846002688476C2804460AD0682C6B
:1025700008D04C2C35D06A2C31D0742C31D07A2C28
:102580002FD016E0E968064628468847B042044640
:1025900008D16C2E23D04FF480662846E96888471E
:1025A000044606E06C2E03D04FF4807601E01EE076
:1025B0004026E4B1A4F14100192802D8203446F4A1
:1025C00000663A46214628462E60FDF717FE60B1A8
:1025D000012808D0FF1D27F007070837B4E7802639
:1025E000DBE70026D9E73F1DAEE72046B2E7286AC1
:1025F000BDE8F081704770477047704730B5B0F163
:102600000A024FEA900E71F100034EEA817EB0EBB0
:102610000E0061EB91014FEA101E4EEA017E10EBB5
:102620000E0041EB11114FEA102E4EEA016E10EB35
:102630000E0041EB11214FEA104E4EEA014E10EB15
:102640000E0041EB1141401841F100014FEAD0006A
:1026500040EA41704FEAD10110EB80054FEA810456
:1026600044EA907444EB01046D1944EB0404521BDA
:10267000A3414FF0000348BF0A3200D530BD401CD3
:1026800041F1000130BD2DE9F0470D4699469246D3
:10269000044600F124080168880604D5E06921F0A9
:1026A0001001216000E00120A84201DD471B00E08D
:1026B0000027A1697A1902EB0900081AA0612078A5
:1026C000C00602D42046AFF30080002608E0D4E91B
:1026D00001211AF806009047206A401C761C2062EF
:1026E0004E45F4DB2078C0060AD52046AFF30080C3
:1026F00006E0D4E9012130209047206A401C206286
:10270000381EA7F10107F4DC07E0D4E9012118F82D
:1027100005009047206A401C2062281EA5F1010593
:10272000F3DC2046AFF300802078000602D50220BB
:10273000BDE8F0870120FBE7074B70B50D467B44F1
:1027400000F011F80446284600F020F810B14FF0D0
:10275000FF3070BD204670BD15E1FFFF01694A1CC6
:1027600002610878704700B58FB0CDE901310021D2
:10277000059105497944CDE9031011466846FFF7F4
:10278000DDFE0FB000BD0000E5FFFFFF007B00F0A5
:1027900080007047754600F02BF8AE46050069468C
:1027A000534620F00700854618B020B5FEF704F91F
:1027B000BDE820404FF000064FF000074FF0000842
:1027C0004FF0000B21F00701AC46ACE8C009ACE8C3
:1027D000C009ACE8C009ACE8C0098D46704710B527
:1027E0000446AFF300802046BDE81040FDF71FBD52
:1027F00000487047000100204FF04070E1EE100AE1
:102800007047000024280008000000203800000065
:10281000C40100085C2800083800002028070000D8
:10282000E0010008007A030A000000000000000038
:102830000102030406070809000000000000000070
:102840000000000000000000000000000000010285
:0C2850000304010203040607080900004D
:040000050800018965
:00000001FF
